{
  "contractName": "Todo",
  "abi": [
    {
      "inputs": [
        {
          "internalType": "string",
          "name": "name",
          "type": "string"
        }
      ],
      "name": "addCategory",
      "outputs": [],
      "stateMutability": "nonpayable",
      "type": "function"
    },
    {
      "inputs": [],
      "name": "getCategories",
      "outputs": [
        {
          "components": [
            {
              "internalType": "uint256",
              "name": "id",
              "type": "uint256"
            },
            {
              "internalType": "string",
              "name": "name",
              "type": "string"
            }
          ],
          "internalType": "struct Todo.categoriesStruct[]",
          "name": "",
          "type": "tuple[]"
        }
      ],
      "stateMutability": "view",
      "type": "function",
      "constant": true
    },
    {
      "inputs": [
        {
          "internalType": "uint256",
          "name": "id",
          "type": "uint256"
        },
        {
          "internalType": "string",
          "name": "name",
          "type": "string"
        }
      ],
      "name": "updateCategory",
      "outputs": [],
      "stateMutability": "nonpayable",
      "type": "function"
    },
    {
      "inputs": [
        {
          "internalType": "uint256",
          "name": "id",
          "type": "uint256"
        }
      ],
      "name": "deleteCategory",
      "outputs": [],
      "stateMutability": "nonpayable",
      "type": "function"
    },
    {
      "inputs": [
        {
          "internalType": "string",
          "name": "todo",
          "type": "string"
        },
        {
          "internalType": "uint256",
          "name": "category",
          "type": "uint256"
        }
      ],
      "name": "addTodo",
      "outputs": [],
      "stateMutability": "nonpayable",
      "type": "function"
    },
    {
      "inputs": [],
      "name": "getTodos",
      "outputs": [
        {
          "components": [
            {
              "internalType": "uint256",
              "name": "id",
              "type": "uint256"
            },
            {
              "internalType": "uint256",
              "name": "category",
              "type": "uint256"
            },
            {
              "internalType": "string",
              "name": "todo",
              "type": "string"
            },
            {
              "internalType": "bool",
              "name": "done",
              "type": "bool"
            }
          ],
          "internalType": "struct Todo.todoItem[]",
          "name": "",
          "type": "tuple[]"
        }
      ],
      "stateMutability": "view",
      "type": "function",
      "constant": true
    },
    {
      "inputs": [
        {
          "internalType": "uint256",
          "name": "id",
          "type": "uint256"
        },
        {
          "internalType": "string",
          "name": "todo",
          "type": "string"
        },
        {
          "internalType": "bool",
          "name": "done",
          "type": "bool"
        }
      ],
      "name": "updateTodos",
      "outputs": [],
      "stateMutability": "nonpayable",
      "type": "function"
    },
    {
      "inputs": [
        {
          "internalType": "uint256",
          "name": "id",
          "type": "uint256"
        }
      ],
      "name": "deleteTodo",
      "outputs": [],
      "stateMutability": "nonpayable",
      "type": "function"
    },
    {
      "inputs": [],
      "name": "clearTodos",
      "outputs": [],
      "stateMutability": "nonpayable",
      "type": "function"
    }
  ],
  "bytecode": "0x608060405234801561001057600080fd5b50611a48806100206000396000f3fe608060405234801561001057600080fd5b50600436106100935760003560e01c806378697e5b1161006657806378697e5b1461010a578063b2becd6614610126578063c33926cb14610130578063ceca737f1461014e578063d6d3708b1461016a57610093565b80632e0dcbf7146100985780634db0412c146100b457806358aff6d4146100d25780636e3c6738146100ee575b600080fd5b6100b260048036038101906100ad9190611291565b610186565b005b6100bc610277565b6040516100c99190611636565b60405180910390f35b6100ec60048036038101906100e791906112d2565b6103af565b005b61010860048036038101906101039190611326565b6104d8565b005b610124600480360381019061011f919061134f565b610813565b005b61012e610a39565b005b610138610a85565b6040516101459190611658565b60405180910390f35b61016860048036038101906101639190611326565b610be1565b005b610184600480360381019061017f91906113a3565b610ecd565b005b6000600160003373ffffffffffffffffffffffffffffffffffffffff1673ffffffffffffffffffffffffffffffffffffffff168152602001908152602001600020805490509050600160003373ffffffffffffffffffffffffffffffffffffffff1673ffffffffffffffffffffffffffffffffffffffff1681526020019081526020016000206040518060400160405280838152602001848152509080600181540180825580915050600190039060005260206000209060020201600090919091909150600082015181600001556020820151816001019080519060200190610270929190611020565b5050505050565b6060600160003373ffffffffffffffffffffffffffffffffffffffff1673ffffffffffffffffffffffffffffffffffffffff168152602001908152602001600020805480602002602001604051908101604052809291908181526020016000905b828210156103a657838290600052602060002090600202016040518060400160405290816000820154815260200160018201805461031590611871565b80601f016020809104026020016040519081016040528092919081815260200182805461034190611871565b801561038e5780601f106103635761010080835404028352916020019161038e565b820191906000526020600020905b81548152906001019060200180831161037157829003601f168201915b505050505081525050815260200190600101906102d8565b50505050905090565b60008060003373ffffffffffffffffffffffffffffffffffffffff1673ffffffffffffffffffffffffffffffffffffffff1681526020019081526020016000208054905090506000803373ffffffffffffffffffffffffffffffffffffffff1673ffffffffffffffffffffffffffffffffffffffff1681526020019081526020016000206040518060800160405280838152602001848152602001858152602001600015158152509080600181540180825580915050600190039060005260206000209060040201600090919091909150600082015181600001556020820151816001015560408201518160020190805190602001906104b0929190611020565b5060608201518160030160006101000a81548160ff0219169083151502179055505050505050565b6000803373ffffffffffffffffffffffffffffffffffffffff1673ffffffffffffffffffffffffffffffffffffffff1681526020019081526020016000208054905081108015610529575060008110155b610568576040517f08c379a000000000000000000000000000000000000000000000000000000000815260040161055f9061167a565b60405180910390fd5b60008190505b60016000803373ffffffffffffffffffffffffffffffffffffffff1673ffffffffffffffffffffffffffffffffffffffff168152602001908152602001600020805490506105bc91906117e5565b81101561074e576000803373ffffffffffffffffffffffffffffffffffffffff1673ffffffffffffffffffffffffffffffffffffffff16815260200190815260200160002060018261060e919061178f565b81548110610645577f4e487b7100000000000000000000000000000000000000000000000000000000600052603260045260246000fd5b90600052602060002090600402016000803373ffffffffffffffffffffffffffffffffffffffff1673ffffffffffffffffffffffffffffffffffffffff16815260200190815260200160002082815481106106c9577f4e487b7100000000000000000000000000000000000000000000000000000000600052603260045260246000fd5b9060005260206000209060040201600082015481600001556001820154816001015560028201816002019080546106ff90611871565b61070a9291906110a6565b506003820160009054906101000a900460ff168160030160006101000a81548160ff0219169083151502179055509050508080610746906118d4565b91505061056e565b506000803373ffffffffffffffffffffffffffffffffffffffff1673ffffffffffffffffffffffffffffffffffffffff1681526020019081526020016000208054806107c3577f4e487b7100000000000000000000000000000000000000000000000000000000600052603160045260246000fd5b600190038181906000526020600020906004020160008082016000905560018201600090556002820160006107f89190611133565b6003820160006101000a81549060ff02191690555050905550565b6000600160003373ffffffffffffffffffffffffffffffffffffffff1673ffffffffffffffffffffffffffffffffffffffff168152602001908152602001600020805490509050600160003373ffffffffffffffffffffffffffffffffffffffff1673ffffffffffffffffffffffffffffffffffffffff16815260200190815260200160002060405180604001604052808381526020018481525090806001815401808255809150506001900390600052602060002090600202016000909190919091506000820151816000015560208201518160010190805190602001906108fd929190611020565b505050600160003373ffffffffffffffffffffffffffffffffffffffff1673ffffffffffffffffffffffffffffffffffffffff1681526020019081526020016000208054905083108015610952575060008310155b610991576040517f08c379a00000000000000000000000000000000000000000000000000000000081526004016109889061167a565b60405180910390fd5b6000600160003373ffffffffffffffffffffffffffffffffffffffff1673ffffffffffffffffffffffffffffffffffffffff1681526020019081526020016000208481548110610a0a577f4e487b7100000000000000000000000000000000000000000000000000000000600052603260045260246000fd5b9060005260206000209060020201905082816001019080519060200190610a32929190611020565b5050505050565b6000803373ffffffffffffffffffffffffffffffffffffffff1673ffffffffffffffffffffffffffffffffffffffff1681526020019081526020016000206000610a839190611173565b565b60606000803373ffffffffffffffffffffffffffffffffffffffff1673ffffffffffffffffffffffffffffffffffffffff168152602001908152602001600020805480602002602001604051908101604052809291908181526020016000905b82821015610bd857838290600052602060002090600402016040518060800160405290816000820154815260200160018201548152602001600282018054610b2c90611871565b80601f0160208091040260200160405190810160405280929190818152602001828054610b5890611871565b8015610ba55780601f10610b7a57610100808354040283529160200191610ba5565b820191906000526020600020905b815481529060010190602001808311610b8857829003601f168201915b505050505081526020016003820160009054906101000a900460ff16151515158152505081526020019060010190610ae5565b50505050905090565b600160003373ffffffffffffffffffffffffffffffffffffffff1673ffffffffffffffffffffffffffffffffffffffff1681526020019081526020016000208054905081108015610c33575060008110155b610c72576040517f08c379a0000000000000000000000000000000000000000000000000000000008152600401610c699061167a565b60405180910390fd5b60008190505b60018060003373ffffffffffffffffffffffffffffffffffffffff1673ffffffffffffffffffffffffffffffffffffffff16815260200190815260200160002080549050610cc691906117e5565b811015610e2357600160003373ffffffffffffffffffffffffffffffffffffffff1673ffffffffffffffffffffffffffffffffffffffff168152602001908152602001600020600182610d19919061178f565b81548110610d50577f4e487b7100000000000000000000000000000000000000000000000000000000600052603260045260246000fd5b9060005260206000209060020201600160003373ffffffffffffffffffffffffffffffffffffffff1673ffffffffffffffffffffffffffffffffffffffff1681526020019081526020016000208281548110610dd5577f4e487b7100000000000000000000000000000000000000000000000000000000600052603260045260246000fd5b9060005260206000209060020201600082015481600001556001820181600101908054610e0190611871565b610e0c9291906110a6565b509050508080610e1b906118d4565b915050610c78565b50600160003373ffffffffffffffffffffffffffffffffffffffff1673ffffffffffffffffffffffffffffffffffffffff168152602001908152602001600020805480610e99577f4e487b7100000000000000000000000000000000000000000000000000000000600052603160045260246000fd5b6001900381819060005260206000209060020201600080820160009055600182016000610ec69190611133565b5050905550565b6000803373ffffffffffffffffffffffffffffffffffffffff1673ffffffffffffffffffffffffffffffffffffffff1681526020019081526020016000208054905083108015610f1e575060008310155b610f5d576040517f08c379a0000000000000000000000000000000000000000000000000000000008152600401610f549061167a565b60405180910390fd5b60008060003373ffffffffffffffffffffffffffffffffffffffff1673ffffffffffffffffffffffffffffffffffffffff1681526020019081526020016000208481548110610fd5577f4e487b7100000000000000000000000000000000000000000000000000000000600052603260045260246000fd5b90600052602060002090600402019050818160030160006101000a81548160ff02191690831515021790555082816002019080519060200190611019929190611020565b5050505050565b82805461102c90611871565b90600052602060002090601f01602090048101928261104e5760008555611095565b82601f1061106757805160ff1916838001178555611095565b82800160010185558215611095579182015b82811115611094578251825591602001919060010190611079565b5b5090506110a29190611197565b5090565b8280546110b290611871565b90600052602060002090601f0160209004810192826110d45760008555611122565b82601f106110e55780548555611122565b8280016001018555821561112257600052602060002091601f016020900482015b82811115611121578254825591600101919060010190611106565b5b50905061112f9190611197565b5090565b50805461113f90611871565b6000825580601f106111515750611170565b601f01602090049060005260206000209081019061116f9190611197565b5b50565b508054600082556004029060005260206000209081019061119491906111b4565b50565b5b808211156111b0576000816000905550600101611198565b5090565b5b808211156111fb5760008082016000905560018201600090556002820160006111de9190611133565b6003820160006101000a81549060ff0219169055506004016111b5565b5090565b600061121261120d846116bf565b61169a565b90508281526020810184848401111561122a57600080fd5b61123584828561182f565b509392505050565b60008135905061124c816119e4565b92915050565b600082601f83011261126357600080fd5b81356112738482602086016111ff565b91505092915050565b60008135905061128b816119fb565b92915050565b6000602082840312156112a357600080fd5b600082013567ffffffffffffffff8111156112bd57600080fd5b6112c984828501611252565b91505092915050565b600080604083850312156112e557600080fd5b600083013567ffffffffffffffff8111156112ff57600080fd5b61130b85828601611252565b925050602061131c8582860161127c565b9150509250929050565b60006020828403121561133857600080fd5b60006113468482850161127c565b91505092915050565b6000806040838503121561136257600080fd5b60006113708582860161127c565b925050602083013567ffffffffffffffff81111561138d57600080fd5b61139985828601611252565b9150509250929050565b6000806000606084860312156113b857600080fd5b60006113c68682870161127c565b935050602084013567ffffffffffffffff8111156113e357600080fd5b6113ef86828701611252565b92505060406114008682870161123d565b9150509250925092565b60006114168383611587565b905092915050565b600061142a83836115c4565b905092915050565b600061143d82611710565b611447818561174b565b935083602082028501611459856116f0565b8060005b858110156114955784840389528151611476858261140a565b945061148183611731565b925060208a0199505060018101905061145d565b50829750879550505050505092915050565b60006114b28261171b565b6114bc818561175c565b9350836020820285016114ce85611700565b8060005b8581101561150a57848403895281516114eb858261141e565b94506114f68361173e565b925060208a019950506001810190506114d2565b50829750879550505050505092915050565b61152581611819565b82525050565b600061153682611726565b611540818561176d565b935061155081856020860161183e565b611559816119aa565b840191505092915050565b6000611571601f8361177e565b915061157c826119bb565b602082019050919050565b600060408301600083015161159f6000860182611627565b50602083015184820360208601526115b7828261152b565b9150508091505092915050565b60006080830160008301516115dc6000860182611627565b5060208301516115ef6020860182611627565b5060408301518482036040860152611607828261152b565b915050606083015161161c606086018261151c565b508091505092915050565b61163081611825565b82525050565b600060208201905081810360008301526116508184611432565b905092915050565b6000602082019050818103600083015261167281846114a7565b905092915050565b6000602082019050818103600083015261169381611564565b9050919050565b60006116a46116b5565b90506116b082826118a3565b919050565b6000604051905090565b600067ffffffffffffffff8211156116da576116d961197b565b5b6116e3826119aa565b9050602081019050919050565b6000819050602082019050919050565b6000819050602082019050919050565b600081519050919050565b600081519050919050565b600081519050919050565b6000602082019050919050565b6000602082019050919050565b600082825260208201905092915050565b600082825260208201905092915050565b600082825260208201905092915050565b600082825260208201905092915050565b600061179a82611825565b91506117a583611825565b9250827fffffffffffffffffffffffffffffffffffffffffffffffffffffffffffffffff038211156117da576117d961191d565b5b828201905092915050565b60006117f082611825565b91506117fb83611825565b92508282101561180e5761180d61191d565b5b828203905092915050565b60008115159050919050565b6000819050919050565b82818337600083830152505050565b60005b8381101561185c578082015181840152602081019050611841565b8381111561186b576000848401525b50505050565b6000600282049050600182168061188957607f821691505b6020821081141561189d5761189c61194c565b5b50919050565b6118ac826119aa565b810181811067ffffffffffffffff821117156118cb576118ca61197b565b5b80604052505050565b60006118df82611825565b91507fffffffffffffffffffffffffffffffffffffffffffffffffffffffffffffffff8214156119125761191161191d565b5b600182019050919050565b7f4e487b7100000000000000000000000000000000000000000000000000000000600052601160045260246000fd5b7f4e487b7100000000000000000000000000000000000000000000000000000000600052602260045260246000fd5b7f4e487b7100000000000000000000000000000000000000000000000000000000600052604160045260246000fd5b6000601f19601f8301169050919050565b7f5468652069642070726f7669646564206973206f7574206f662072616e676500600082015250565b6119ed81611819565b81146119f857600080fd5b50565b611a0481611825565b8114611a0f57600080fd5b5056fea2646970667358221220874f24ef0e4d4941198626a839fd0a66f15b51166b15268de294eb26c7e22b6a64736f6c63430008010033",
  "immutableReferences": {},
  "source": "// SPDX-License-Identifier: UNLICENSE-2.0\r\n\r\npragma solidity >=0.4.22 <0.9.0;\r\n\r\ncontract Todo {\r\n    struct categoriesStruct{\r\n        uint id;\r\n        string name;\r\n    }\r\n    struct todoItem{\r\n        uint id;\r\n        uint category;\r\n        string todo;\r\n        bool done;\r\n    }\r\n    mapping(address=>todoItem[]) todos;\r\n    mapping(address=>categoriesStruct[]) categories; \r\n\r\n    function addCategory(string memory name) public {\r\n        uint count = categories[msg.sender].length; \r\n        categories[msg.sender].push(categoriesStruct({id: count, name: name}));\r\n    }\r\n\r\n    function getCategories() public view returns(categoriesStruct[] memory){\r\n        return categories[msg.sender];\r\n    }\r\n\r\n    function updateCategory(uint id, string memory name) public {\r\n        uint count = categories[msg.sender].length; \r\n        categories[msg.sender].push(categoriesStruct({id: count, name: name}));\r\n\r\n        require(id < categories[msg.sender].length && id >= 0, 'The id provided is out of range');\r\n        \r\n        categoriesStruct storage category = categories[msg.sender][id];\r\n        category.name = name; \r\n    }\r\n\r\n    function deleteCategory(uint id) public {\r\n        require(id < categories[msg.sender].length && id >= 0, 'The id provided is out of range');\r\n\r\n        for(uint i = id; i < categories[msg.sender].length - 1; i++) {\r\n            categories[msg.sender][i] = categories[msg.sender][i+1];\r\n        }\r\n        categories[msg.sender].pop();\r\n    }\r\n\r\n    function addTodo(string memory todo, uint category) public  {\r\n        uint count = todos[msg.sender].length; \r\n        todos[msg.sender].push(todoItem({id: count, todo: todo, done: false, category: category}));\r\n        \r\n    }\r\n\r\n    function getTodos() public view returns(todoItem[] memory){\r\n        return todos[msg.sender];\r\n    }\r\n\r\n    function updateTodos(uint id, string memory todo, bool done) public {\r\n        require(id < todos[msg.sender].length && id >= 0, 'The id provided is out of range');\r\n        \r\n        todoItem storage item = todos[msg.sender][id];\r\n        // todos[msg.sender][id] = todoItem({id: id, todo: todo, done: done});\r\n        item.done = done; \r\n        item.todo = todo;   \r\n    }\r\n\r\n    function deleteTodo(uint id) public {\r\n        require(id < todos[msg.sender].length && id >= 0, 'The id provided is out of range');\r\n\r\n        for(uint i = id; i < todos[msg.sender].length - 1; i++) {\r\n            todos[msg.sender][i] = todos[msg.sender][i+1];\r\n        }\r\n        todos[msg.sender].pop();\r\n    }\r\n\r\n    function clearTodos() public { \r\n        delete todos[msg.sender];\r\n    }\r\n}",
  "sourcePath": "C:\\Users\\Abba Bawa\\Documents\\web3\\solidity-todo-app\\contracts\\Todo.sol",
  "compiler": {
    "name": "solc",
    "version": "0.8.1+commit.df193b15.Emscripten.clang"
  },
  "schemaVersion": "3.4.10",
  "updatedAt": "2023-02-02T18:11:38.888Z",
  "networkType": "ethereum",
  "devdoc": {
    "kind": "dev",
    "methods": {},
    "version": 1
  },
  "userdoc": {
    "kind": "user",
    "methods": {},
    "version": 1
  }
}