{
    "contractName": "Todo",
    "abi": [
        {
            "inputs": [
                {
                    "internalType": "string",
                    "name": "todo",
                    "type": "string"
                }
            ],
            "name": "addTodo",
            "outputs": [],
            "stateMutability": "nonpayable",
            "type": "function"
        },
        {
            "inputs": [],
            "name": "getTodos",
            "outputs": [
                {
                    "components": [
                        {
                            "internalType": "uint256",
                            "name": "id",
                            "type": "uint256"
                        },
                        {
                            "internalType": "string",
                            "name": "todo",
                            "type": "string"
                        },
                        {
                            "internalType": "bool",
                            "name": "done",
                            "type": "bool"
                        }
                    ],
                    "internalType": "struct Todo.todoItem[]",
                    "name": "",
                    "type": "tuple[]"
                }
            ],
            "stateMutability": "view",
            "type": "function",
            "constant": true
        },
        {
            "inputs": [
                {
                    "internalType": "uint256",
                    "name": "id",
                    "type": "uint256"
                },
                {
                    "internalType": "string",
                    "name": "todo",
                    "type": "string"
                },
                {
                    "internalType": "bool",
                    "name": "done",
                    "type": "bool"
                }
            ],
            "name": "updateTodos",
            "outputs": [],
            "stateMutability": "nonpayable",
            "type": "function"
        },
        {
            "inputs": [
                {
                    "internalType": "uint256",
                    "name": "id",
                    "type": "uint256"
                }
            ],
            "name": "deleteTodo",
            "outputs": [],
            "stateMutability": "nonpayable",
            "type": "function"
        },
        {
            "inputs": [],
            "name": "clearTodos",
            "outputs": [],
            "stateMutability": "nonpayable",
            "type": "function"
        }
    ],
    "bytecode": "0x608060405234801561001057600080fd5b5061104e806100206000396000f3fe608060405234801561001057600080fd5b50600436106100575760003560e01c80636e3c67381461005c57806395ffebf514610078578063b2becd6614610094578063c33926cb1461009e578063d6d3708b146100bc575b600080fd5b61007660048036038101906100719190610ab4565b6100d8565b005b610092600480360381019061008d9190610a73565b610401565b005b61009c610519565b005b6100a6610565565b6040516100b39190610c97565b60405180910390f35b6100d660048036038101906100d19190610add565b6106b7565b005b6000803373ffffffffffffffffffffffffffffffffffffffff1673ffffffffffffffffffffffffffffffffffffffff1681526020019081526020016000208054905081108015610129575060008110155b610168576040517f08c379a000000000000000000000000000000000000000000000000000000000815260040161015f90610cb9565b60405180910390fd5b60008190505b60016000803373ffffffffffffffffffffffffffffffffffffffff1673ffffffffffffffffffffffffffffffffffffffff168152602001908152602001600020805490506101bc9190610deb565b811015610344576000803373ffffffffffffffffffffffffffffffffffffffff1673ffffffffffffffffffffffffffffffffffffffff16815260200190815260200160002060018261020e9190610d95565b81548110610245577f4e487b7100000000000000000000000000000000000000000000000000000000600052603260045260246000fd5b90600052602060002090600302016000803373ffffffffffffffffffffffffffffffffffffffff1673ffffffffffffffffffffffffffffffffffffffff16815260200190815260200160002082815481106102c9577f4e487b7100000000000000000000000000000000000000000000000000000000600052603260045260246000fd5b90600052602060002090600302016000820154816000015560018201816001019080546102f590610e77565b61030092919061080a565b506002820160009054906101000a900460ff168160020160006101000a81548160ff021916908315150217905550905050808061033c90610eda565b91505061016e565b506000803373ffffffffffffffffffffffffffffffffffffffff1673ffffffffffffffffffffffffffffffffffffffff1681526020019081526020016000208054806103b9577f4e487b7100000000000000000000000000000000000000000000000000000000600052603160045260246000fd5b60019003818190600052602060002090600302016000808201600090556001820160006103e69190610897565b6002820160006101000a81549060ff02191690555050905550565b60008060003373ffffffffffffffffffffffffffffffffffffffff1673ffffffffffffffffffffffffffffffffffffffff1681526020019081526020016000208054905090506000803373ffffffffffffffffffffffffffffffffffffffff1673ffffffffffffffffffffffffffffffffffffffff16815260200190815260200160002060405180606001604052808381526020018481526020016000151581525090806001815401808255809150506001900390600052602060002090600302016000909190919091506000820151816000015560208201518160010190805190602001906104f29291906108d7565b5060408201518160020160006101000a81548160ff02191690831515021790555050505050565b6000803373ffffffffffffffffffffffffffffffffffffffff1673ffffffffffffffffffffffffffffffffffffffff1681526020019081526020016000206000610563919061095d565b565b60606000803373ffffffffffffffffffffffffffffffffffffffff1673ffffffffffffffffffffffffffffffffffffffff168152602001908152602001600020805480602002602001604051908101604052809291908181526020016000905b828210156106ae57838290600052602060002090600302016040518060600160405290816000820154815260200160018201805461060290610e77565b80601f016020809104026020016040519081016040528092919081815260200182805461062e90610e77565b801561067b5780601f106106505761010080835404028352916020019161067b565b820191906000526020600020905b81548152906001019060200180831161065e57829003601f168201915b505050505081526020016002820160009054906101000a900460ff161515151581525050815260200190600101906105c5565b50505050905090565b6000803373ffffffffffffffffffffffffffffffffffffffff1673ffffffffffffffffffffffffffffffffffffffff1681526020019081526020016000208054905083108015610708575060008310155b610747576040517f08c379a000000000000000000000000000000000000000000000000000000000815260040161073e90610cb9565b60405180910390fd5b60008060003373ffffffffffffffffffffffffffffffffffffffff1673ffffffffffffffffffffffffffffffffffffffff16815260200190815260200160002084815481106107bf577f4e487b7100000000000000000000000000000000000000000000000000000000600052603260045260246000fd5b90600052602060002090600302019050818160020160006101000a81548160ff021916908315150217905550828160010190805190602001906108039291906108d7565b5050505050565b82805461081690610e77565b90600052602060002090601f0160209004810192826108385760008555610886565b82601f106108495780548555610886565b8280016001018555821561088657600052602060002091601f016020900482015b8281111561088557825482559160010191906001019061086a565b5b5090506108939190610981565b5090565b5080546108a390610e77565b6000825580601f106108b557506108d4565b601f0160209004906000526020600020908101906108d39190610981565b5b50565b8280546108e390610e77565b90600052602060002090601f016020900481019282610905576000855561094c565b82601f1061091e57805160ff191683800117855561094c565b8280016001018555821561094c579182015b8281111561094b578251825591602001919060010190610930565b5b5090506109599190610981565b5090565b508054600082556003029060005260206000209081019061097e919061099e565b50565b5b8082111561099a576000816000905550600101610982565b5090565b5b808211156109dd576000808201600090556001820160006109c09190610897565b6002820160006101000a81549060ff02191690555060030161099f565b5090565b60006109f46109ef84610cfe565b610cd9565b905082815260208101848484011115610a0c57600080fd5b610a17848285610e35565b509392505050565b600081359050610a2e81610fea565b92915050565b600082601f830112610a4557600080fd5b8135610a558482602086016109e1565b91505092915050565b600081359050610a6d81611001565b92915050565b600060208284031215610a8557600080fd5b600082013567ffffffffffffffff811115610a9f57600080fd5b610aab84828501610a34565b91505092915050565b600060208284031215610ac657600080fd5b6000610ad484828501610a5e565b91505092915050565b600080600060608486031215610af257600080fd5b6000610b0086828701610a5e565b935050602084013567ffffffffffffffff811115610b1d57600080fd5b610b2986828701610a34565b9250506040610b3a86828701610a1f565b9150509250925092565b6000610b508383610c38565b905092915050565b6000610b6382610d3f565b610b6d8185610d62565b935083602082028501610b7f85610d2f565b8060005b85811015610bbb5784840389528151610b9c8582610b44565b9450610ba783610d55565b925060208a01995050600181019050610b83565b50829750879550505050505092915050565b610bd681610e1f565b82525050565b6000610be782610d4a565b610bf18185610d73565b9350610c01818560208601610e44565b610c0a81610fb0565b840191505092915050565b6000610c22601f83610d84565b9150610c2d82610fc1565b602082019050919050565b6000606083016000830151610c506000860182610c88565b5060208301518482036020860152610c688282610bdc565b9150506040830151610c7d6040860182610bcd565b508091505092915050565b610c9181610e2b565b82525050565b60006020820190508181036000830152610cb18184610b58565b905092915050565b60006020820190508181036000830152610cd281610c15565b9050919050565b6000610ce3610cf4565b9050610cef8282610ea9565b919050565b6000604051905090565b600067ffffffffffffffff821115610d1957610d18610f81565b5b610d2282610fb0565b9050602081019050919050565b6000819050602082019050919050565b600081519050919050565b600081519050919050565b6000602082019050919050565b600082825260208201905092915050565b600082825260208201905092915050565b600082825260208201905092915050565b6000610da082610e2b565b9150610dab83610e2b565b9250827fffffffffffffffffffffffffffffffffffffffffffffffffffffffffffffffff03821115610de057610ddf610f23565b5b828201905092915050565b6000610df682610e2b565b9150610e0183610e2b565b925082821015610e1457610e13610f23565b5b828203905092915050565b60008115159050919050565b6000819050919050565b82818337600083830152505050565b60005b83811015610e62578082015181840152602081019050610e47565b83811115610e71576000848401525b50505050565b60006002820490506001821680610e8f57607f821691505b60208210811415610ea357610ea2610f52565b5b50919050565b610eb282610fb0565b810181811067ffffffffffffffff82111715610ed157610ed0610f81565b5b80604052505050565b6000610ee582610e2b565b91507fffffffffffffffffffffffffffffffffffffffffffffffffffffffffffffffff821415610f1857610f17610f23565b5b600182019050919050565b7f4e487b7100000000000000000000000000000000000000000000000000000000600052601160045260246000fd5b7f4e487b7100000000000000000000000000000000000000000000000000000000600052602260045260246000fd5b7f4e487b7100000000000000000000000000000000000000000000000000000000600052604160045260246000fd5b6000601f19601f8301169050919050565b7f5468652069642070726f7669646564206973206f7574206f662072616e676500600082015250565b610ff381610e1f565b8114610ffe57600080fd5b50565b61100a81610e2b565b811461101557600080fd5b5056fea264697066735822122087166e25bc2bdcceea9799d2caadb79cc142a3839a9d5ca57d2cadc535a2e9c664736f6c63430008010033",
    "immutableReferences": {},
    "source": "// SPDX-License-Identifier: UNLICENSE-2.0\r\n\r\npragma solidity >=0.4.22 <0.9.0;\r\n\r\ncontract Todo {\r\n    struct todoItem{\r\n        uint id;\r\n        string todo;\r\n        bool done;\r\n    }\r\n    mapping(address=>todoItem[]) todos;\r\n\r\n    function addTodo(string memory todo) public  {\r\n        uint count = todos[msg.sender].length; \r\n        todos[msg.sender].push(todoItem({id: count, todo: todo, done: false}));\r\n        \r\n    }\r\n\r\n    function getTodos() public view returns(todoItem[] memory){\r\n        return todos[msg.sender];\r\n    }\r\n\r\n    function updateTodos(uint id, string memory todo, bool done) public {\r\n        require(id < todos[msg.sender].length && id >= 0, 'The id provided is out of range');\r\n        \r\n        todoItem storage item = todos[msg.sender][id];\r\n        // todos[msg.sender][id] = todoItem({id: id, todo: todo, done: done});\r\n        item.done = done;\r\n        item.todo = todo;\r\n    }\r\n\r\n    function deleteTodo(uint id) public {\r\n        require(id < todos[msg.sender].length && id >= 0, 'The id provided is out of range');\r\n\r\n        for(uint i = id; i < todos[msg.sender].length - 1; i++) {\r\n            todos[msg.sender][i] = todos[msg.sender][i+1];\r\n        }\r\n        todos[msg.sender].pop();\r\n    }\r\n\r\n    function clearTodos() public {\r\n        delete todos[msg.sender];\r\n    }\r\n}",
    "sourcePath": "C:\\Users\\Abba Bawa\\Documents\\web3\\solidity-todo-app\\contracts\\Todo.sol",
    "compiler": {
        "name": "solc",
        "version": "0.8.1+commit.df193b15.Emscripten.clang"
    },
    "schemaVersion": "3.4.10",
    "updatedAt": "2022-10-26T07:31:36.181Z",
    "networkType": "ethereum",
    "devdoc": {
        "kind": "dev",
        "methods": {},
        "version": 1
    },
    "userdoc": {
        "kind": "user",
        "methods": {},
        "version": 1
    }
}